:100000000C9434000C9451000C9451000C94510049
:100010000C9451000C9451000C9451000C9451001C
:100020000C9451000C9451000C9451000C9451000C
:100030000C9451000C9451000C9451000C945100FC
:100040000C9451000C9451000C9451000C945100EC
:100050000C9451000C9451000C9451000C945100DC
:100060000C9451000C94510011241FBECFEFD8E026
:10007000DEBFCDBF11E0A0E0B1E0E4EAF9E002C0EC
:1000800005900D92AE30B107D9F711E0AEE0B1E0C6
:1000900001C01D92A031B107E1F70E94A9010C94A3
:1000A000D0040C94000037B12AB187B1886387B9B6
:1000B00043984598449A439A579802C04398439A64
:1000C0004F99FCCF84E090E00197F1F737B92AB956
:1000D0000895EF92FF92CF93DF937C0180910E0100
:1000E00090910F01089771F4D7B1CAB18FEF87B91A
:1000F0008AB94398EBB845984498439A0E945300B4
:10010000D7B9CAB980910E0190910F01049729F5D2
:10011000D7B1CAB18FEF87B98AB945984498439847
:10012000C701807F99278BB9439A80E89CE0FC0146
:100130003197F1F74398FC013197F1F7439824E0A8
:10014000EE0CFF1C2A95E1F7EBB8439A0197F1F703
:1001500043980E945300D7B9CAB9DF91CF91FF905D
:10016000EF900895EF92FF92CF93DF937C01D7B188
:10017000CAB18FEF87B98AB9CB0180680E94690044
:10018000459A449880910E0190910F01089729F4A7
:100190004398EBB8439A0E94530080910E019091CE
:1001A0000F010497E1F44398C701807F99278BB929
:1001B000439A80E89CE0FC013197F1F74398FC01F9
:1001C0003197F1F7439834E0EE0CFF1C3A95E1F7D4
:1001D000EBB8439A0197F1F743980E945300D7B9BF
:1001E000CAB9DF91CF91FF90EF900895CF92DF923F
:1001F000EF92FF927C018FEF87B98AB92FE782E3F4
:1002000092E0215080409040E1F700C0000080E380
:1002100090E00E94690080E190E40197F1F780E3AB
:1002200090E00E94690040E9C42EDD24D394C60109
:100230000197F1F780E390E00E946900C601019701
:10024000F1F728E0E216F104B9F4F0920F01E09220
:100250000E0188E390E00E94690088E090E00E942F
:10026000690081E090E00E94690086E090E00E94D1
:1002700069008CE090E022C084E0E816F10421F5EA
:10028000F0920F01E0920E01439880E28BB9439AFD
:1002900080E699E00197F1F788E290E00E9469001A
:1002A00088E090E00E94690081E090E00E9469008F
:1002B00086E090E00E9469008FE090E0FF90EF9070
:1002C000DF90CF900C946900FF90EF90DF90CF907B
:1002D000089581E090E00C946900AF92BF92CF92B4
:1002E000DF92EF92FF925C010E946901E12CF12CF8
:1002F000C12CD12C21C090E1E916F10419F460E47D
:10030000C62ED12C8A3031F48FEFE81AF80A50E467
:10031000C52ED12CF501EE0DFF1DB601808190E0B8
:100320000E94B2009FEFE91AF90A8FEFC81AD80AA3
:1003300090E2E916F10434F4F501EE0DFF1D808121
:100340008111D9CFFF90EF90DF90CF90BF90AF9009
:100350000895CF93DF93CDB7DEB7C055D1090FB65F
:10036000F894DEBF0FBECDBF84E090E00E94F6009F
:10037000E12CF12C1AE070E0872E71E0972EE6E078
:10038000AE2EE1E0BE2ECC24C394D12CCC0EDD1ECB
:10039000FF92EF921F921F939F928F92BF92AF9204
:1003A000DF92CF920E94E901C6010E946D012FEFFA
:1003B00083ED90E3215080409040E1F700C00000C1
:1003C0002FEFE21AF20A0FB6F894DEBF0FBECDBFD0
:1003D000DFCFEF92FF92CF93DF93CDB7DEB72E97AB
:1003E0000FB6F894DEBF0FBECDBFED88FE8886E065
:1003F0008C83FA82E9828FEF9FE79E838D83CE0103
:100400004996AC016F89788DCE0101960E94180241
:10041000EF81F885EE0DFF1D10822E960FB6F89431
:10042000DEBF0FBECDBFDF91CF91FF90EF9008955B
:10043000ACE0B0E0EEE1F2E00C9499046C015B01F9
:100440007A01FC0117821682838181FFC1C1662473
:100450006394712C6C0E7D1EF6019381F50193FD62
:10046000859193FF81915F01882309F4ADC18532A5
:1004700039F493FD859193FF81915F01853229F4D1
:10048000B60190E00E940504E7CF512C10E020E077
:100490002032A8F48B3261F028F4803251F083329C
:1004A00071F40BC08D3239F0803349F4216028C0DB
:1004B0002260246025C0286023C0206121C027FD60
:1004C00027C0382F30533A3078F426FF06C0FAE0C0
:1004D0005F9E300D1124532E13C04AE0149F300D3F
:1004E0001124132F20620CC08E3221F426FD6CC122
:1004F000206406C08C3611F4206802C0883641F4AE
:10050000F50193FD859193FF81915F018111C0CF2A
:10051000982F9554933018F09052933030F4F4E0C3
:10052000EF0EF11C4FE349830EC0833631F0833761
:1005300079F0833509F05DC023C0F701808189839C
:1005400042E0E40EF11C44244394512C430115C0B5
:10055000170152E0250E311CF7018080918026FFA3
:1005600003C0652D70E002C06FEF7FEFC4012C87E0
:100570000E94FA032C0171012C85022F0F7717C0FE
:100580001701F2E02F0E311CF7018080918026FFC9
:1005900003C0652D70E002C06FEF7FEFC4012C87B0
:1005A0000E94EF032C012C85022F0068710103FDCE
:1005B0001CC006C0B60180E290E00E940504115004
:1005C000812F90E048165906A8F30FC0F40107FDEB
:1005D000859107FF81914F01B60190E00E940504CB
:1005E00011111150F1E04F1A51084114510471F7E3
:1005F000E8C0843611F0893651F5F70127FF07C0AE
:10060000608171818281938144E050E008C0608103
:100610007181882777FD8095982F42E050E0E40EA5
:10062000F51E3FE6432E422297FF09C09095809524
:10063000709561957F4F8F4F9F4F50E8452A2AE074
:1006400030E0A3010E943B04882E861840C0022F90
:10065000853721F40F7E2AE030E01FC0097F8F36F6
:10066000A1F020F4883509F0AFC00BC0803721F02D
:10067000883709F0A9C001C0006104FF09C0046007
:1006800007C024FF08C0066006C028E030E005C0AF
:1006900020E130E002C020E132E0F70107FF07C0AF
:1006A000608171818281938144E050E006C0608165
:1006B000718180E090E042E050E0E40EF51EA3017D
:1006C0000E943B04882E86188FE7482E402246FE63
:1006D0000BC0042D0E7F851450F444FE0AC042FC6A
:1006E00008C0042D0E7E05C0982C042D03C0982C44
:1006F00001C0952C04FF0DC0FE01E80DF11D8081A5
:10070000803311F4097E09C002FF06C093949394CC
:1007100004C0802F867809F0939403FD12C000FF77
:100720000DC0582C911650F4510E5918912E06C038
:10073000B60180E290E00E94050493949116C0F304
:1007400004C0911610F4191901C010E004FF10C084
:10075000B60180E390E00E94050402FF1EC001FF85
:1007600003C088E590E002C088E790E0B6010CC0C5
:10077000802F867891F001FD02C080E201C08BE2FB
:1007800007FD8DE2B60190E00E94050406C0B601A7
:1007900080E390E00E9405045A948514C0F38A9483
:1007A000F301E80DF11DB601808190E00E9405047F
:1007B0008110F5CF06C0B60180E290E00E940504EA
:1007C00011501111F8CF48CEF6012681378102C0B1
:1007D0002FEF3FEFC9012C96E2E10C94B504FC0128
:1007E0000590615070400110D8F7809590958E0F5C
:1007F0009F1F0895FC016150704001900110D8F7CF
:10080000809590958E0F9F1F0895CF92DF92EF9263
:10081000FF926C017B01DB0113968C9181FD04C07A
:10082000CC24CA94DC2C21C082FF10C0FB0126819D
:10083000378184819581281739078CF40190F081E4
:10084000E02DC192DB01ED93FC9309C0DB0118960A
:10085000ED91FC9119978C2D0995892B09F7F701DA
:1008600086819781019697838683C601FF90EF90DA
:10087000DF90CF900895FA01AA27283051F1203156
:1008800081F1E8946F936E7F6E5F7F4F8F4F9F4F24
:10089000AF4FB1E03ED0B4E03CD0670F781F891F66
:1008A0009A1FA11D680F791F8A1F911DA11D6A0F34
:1008B000711D811D911DA11D20D009F468943F91E7
:1008C0002AE0269F11243019305D3193DEF6CF01E6
:1008D0000895462F4770405D4193B3E00FD0C9F7AC
:1008E000F6CF462F4F70405D4A3318F0495D31FD19
:1008F0004052419302D0A9F7EACFB4E0A69597956C
:10090000879577956795BA95C9F700976105710541
:1009100008959B01AC010A2E06945795479537958B
:100920002795BA95C9F7620F731F841F951FA01DE5
:1009300008952F923F924F925F926F927F928F9283
:100940009F92AF92BF92CF92DF92EF92FF920F935E
:100950001F93CF93DF93CDB7DEB7CA1BDB0B0FB668
:10096000F894DEBF0FBECDBF09942A883988488825
:100970005F846E847D848C849B84AA84B984C884BB
:10098000DF80EE80FD800C811B81AA81B981CE0FB2
:10099000D11D0FB6F894DEBF0FBECDBFED01089597
:0409A000F894FFCFF9
:0E09A40048454C4C4F00257325632569000023
:00000001FF
